:020000040800F2
:100000001804002081020008E1020008E102000853
:10001000E1020008E1020008E1020008000000001F
:10002000000000000000000000000000E1020008E5
:10003000E102000800000000E1020008E1020008FF
:10004000E1020008E1020008E1020008E102000804
:10005000E1020008E1020008E1020008E1020008F4
:10006000E1020008E1020008E1020008E1020008E4
:10007000E1020008E1020008E1020008E1020008D4
:10008000E1020008E1020008E1020008E1020008C4
:10009000E1020008E1020008E1020008E1020008B4
:1000A000E1020008E1020008E1020008E1020008A4
:1000B000E1020008E1020008E1020008E102000894
:1000C000E1020008E1020008E1020008E102000884
:1000D000E1020008E1020008E1020008E102000874
:1000E000E1020008E1020008E1020008000000004F
:1000F0000000000000000000000000000000000000
:1001000000000000000000005FF808F180B500AFBB
:10011000154B1B68144A43F001031360124B5A68D5
:100120001149124B13404B600F4B1B680E4A23F0D2
:10013000847323F4803313600B4B1B680A4A23F447
:1001400080231360084B5B68074A23F4FE03536067
:10015000054B4FF41F029A6000F00CF8044B4FF06F
:1001600000629A6000BF80BD001002400000FFF8EE
:1001700000ED00E080B500AF00F002F800BF80BDE8
:1001800080B483B000AF00237B6000233B603A4B18
:100190001B68394A43F480331360374B1B6803F400
:1001A00000333B607B6801337B603B68002B03D1ED
:1001B0007B68B3F5A06FF0D12F4B1B6803F40033BD
:1001C000002B02D001233B6001E000233B603B6831
:1001D000012B4BD1294B1B68284A43F010031360B5
:1001E000264B1B68254A23F003031360234B1B682F
:1001F000224A43F0020313601F4B1F4A5B6853609F
:100200001D4B1D4A5B6853601B4B5B681A4A43F4E5
:1002100080635360184B5B68174A23F47C13536068
:10022000154B5B68144A43F4E8135360124B1B6888
:10023000114A43F08073136000BF0F4B1B6803F03B
:100240000073002BF9D00C4B5B680B4A23F00303BF
:100250005360094B5B68084A43F00203536000BFD8
:10026000054B5B6803F00C03082BF9D100BF0C377A
:10027000BD4680BC704700BF001002400020024015
:1002800080B582B000AF114B7B60114B3B6007E043
:100290007A68131D7B603B68191D396012681A600B
:1002A0003B680C4A9342F3D30B480C494FF00002D1
:1002B0008842B8BF40F8042BFADBFFF727FF00F0B5
:1002C00012F800BF0837BD4680BD00BF78060008A1
:1002D0000000002014000020140000201400002062
:1002E00080B400AFFEE780B500AF00F023F8052032
:1002F00000F002F8FEE7000080B485B000AF78603F
:100300000A4B5B68FB600A4B1A687B6802FB03F3CD
:100310007B6000BF054B5A68FB68D31A7A689A4223
:10032000F8D800BF1437BD4680BC7047001000E00D
:100330000000002080B582B000AF00F033F84FF429
:10034000803000F05DF800F089F80346FB71FB791E
:10035000012B23D1002000F001F9002000F036F934
:100360004FF4806000F016F94FF4E0114FF4803044
:1003700000F09CF8012000F0B7F800BF392000F031
:1003800041F90346002BF9D0022000F0BDF800BF70
:1003900000F0D6F80346082BFAD100E0FEE7083754
:1003A000BD4680BD80B400AF134B1B68124A43F0BA
:1003B00001031360104B5A680F49104B13404B60F8
:1003C0000D4B1B680C4A23F0847323F480331360B5
:1003D000094B1B68084A23F480231360064B5B68B3
:1003E000054A23F4FE035360034B4FF41F029A6047
:1003F00000BFBD4680BC7047001002400000FFF8FF
:1004000080B483B000AF7860134B1B68124A23F4AA
:1004100080331360104B1B680F4A23F48023136052
:100420007B68B3F5803F03D0B3F5802F07D00DE094
:10043000094B1B68084A43F48033136006E0064BFF
:100440001B68054A43F4A023136000BF00BF0C37AC
:10045000BD4680BC704700BF0010024080B582B02E
:1004600000AF00233B600023FB710023BB713120F0
:1004700000F0C8F80346BB713B6801333B603B6842
:10048000B3F5A06F02D0BB79002BF0D0312000F083
:10049000B9F80346002B02D00123FB7101E00023D1
:1004A000FB71FB7918460837BD4680BD80B485B026
:1004B00000AF786039600023FB600A4B5B68FB602B
:1004C000FB6823F47C13FB607A683B681343FA688B
:1004D0001343FB60034AFB68536000BF1437BD46FB
:1004E00080BC70470010024080B483B000AF034668
:1004F000FB71044AFB79136000BF0C37BD4680BC1A
:10050000704700BF6000424280B485B000AF7860A1
:100510000023FB60094B5B68FB60FB6823F003036F
:10052000FB60FA687B681343FB60044AFB68536016
:1005300000BF1437BD4680BC704700BF00100240AA
:1005400080B400AF044B5B68DBB203F00C03DBB29A
:100550001846BD4680BC70470010024080B485B08C
:1005600000AF78600023FB60094B5B68FB60FB68B1
:1005700023F0F003FB60FA687B681343FB60044AD6
:10058000FB68536000BF1437BD4680BC704700BF96
:100590000010024080B485B000AF78600023FB609B
:1005A000094B5B68FB60FB6823F4E063FB60FA685F
:1005B0007B681343FB60044AFB68536000BF143739
:1005C000BD4680BC704700BF0010024080B485B0BB
:1005D00000AF78600023FB60094B5B68FB60FB6841
:1005E00023F46053FB607B68DB00FA681343FB6015
:1005F000034AFB68536000BF1437BD4680BC704798
:100600000010024080B487B000AF0346FB710023A6
:10061000FB6000237B610023FB74FB795B09DBB289
:10062000FB60FB68012B03D1124B1B687B6109E067
:10063000FB68022B03D10F4B1B6A7B6102E00D4B61
:100640005B6A7B61FB7903F01F03FB607A69FB68DF
:1006500022FA03F303F00103002B02D00123FB7401
:1006600001E00023FB74FB7C18461C37BD4680BCB0
:08067000704700BF00100240BA
:1006780000A24A0400000000000000000102030478
:040688000607080950
:0400000508000000EF
:00000001FF
