:020000040800F2
:10000000900A0020B50C0008150D0008150D000819
:10001000150D0008150D0008150D00080000000062
:10002000000000000000000000000000150D0008A6
:10003000150D000800000000150D0008150D000842
:10004000150D0008150D0008150D0008150D000808
:10005000150D0008150D0008150D0008E50F000826
:10006000150D0008150D0008150D0008150D0008E8
:10007000150D0008150D0008150D0008150D0008D8
:10008000150D0008150D0008150D0008150D0008C8
:10009000150D0008150D0008150D0008150D0008B8
:1000A000150D0008150D0008150D0008150D0008A8
:1000B000150D00086509000845070008150D000822
:1000C000150D0008150D0008150D0008150D000888
:1000D000150D000871250008150D0008150D000804
:1000E000150D0008150D0008150D00080000000092
:1000F0000000000000000000000000000000000000
:1001000000000000000000005FF808F180B485B036
:1001100000AF786039600023FB817B681B88FB811E
:100120007B682E4A934213D07B682D4A93420FD0AE
:100130007B68B3F1804F0BD07B682A4A934207D08B
:100140007B68294A934203D07B68284A934208D1AE
:10015000FB8923F07003FB813B685A88FB891343BA
:10016000FB817B68224A93420CD07B68214A9342F0
:1001700008D0FB8923F44073FB813B68DA88FB8954
:100180001343FB817B68FA891A803B689A887B68F5
:100190009A853B681A887B681A857B680F4A934268
:1001A0000FD07B680E4A93420BD07B68124A934271
:1001B00007D07B68114A934203D07B68104A934270
:1001C00004D13B681B7A9AB27B681A867B6801224D
:1001D0009A8200BF1437BD4680BC7047002C014096
:1001E000003401400004004000080040000C0040C2
:1001F0000010004000140040004001400044014055
:100200000048014080B483B000AF78607B684FF64F
:10021000FF729A807B6800221A807B680022DA8055
:100220007B6800225A807B6800221A7200BF0C375C
:10023000BD4680BC704780B483B000AF78600B4689
:10024000FB70FB78002B08D07B681B889BB243F0C7
:1002500001039AB27B681A8007E07B681B889BB217
:1002600023F001039AB27B681A8000BF0C37BD46A9
:1002700080BC704780B483B000AF78600B467B8051
:1002800013467B707B78002B08D07B689B899AB2E1
:100290007B8813439AB27B689A8109E07B689B89CB
:1002A0009AB27B88DB439BB213409AB27B689A81F7
:1002B00000BF0C37BD4680BC704780B485B000AF2E
:1002C00078600B467B800023FB730023BB810023F7
:1002D0007B817B681B8A9AB27B881340BB817B68D9
:1002E0009B899AB27B8813407B81BB89002B05D008
:1002F0007B89002B02D00123FB7301E00023FB73F9
:10030000FB7B18461437BD4680BC704780B483B071
:1003100000AF78600B467B807B88DB439AB27B68BA
:100320001A8200BF0C37BD4680BC704780B582B0D2
:1003300000AF0F4B00221A700123FB710E21D02059
:1003400000F0FCF80346FB71FB7943F00403FB71FA
:10035000FB791A460E21D02000F09EF880220A2157
:10036000D02000F099F8012318460837BD4680BD1B
:100370006606002080B582B000AF0123FB7109E062
:100380000F21D02000F0DAF80346FB71FB7903F06F
:100390000403FB71FB79002BF2D10E21D02000F079
:1003A000CDF80346FB71FB7943F02003FB71FB7929
:1003B0001A460E21D02000F06FF81121D02000F055
:1003C000BDF8034618460837BD4680BD80B582B0EB
:1003D00000AF0123FB710F21D02000F0AFF80346DE
:1003E000FB71FB7923F00103FB71FB791A460F21A6
:1003F000D02000F051F800BF0837BD4680BD80B561
:1004000084B000AF0346FB71FFF7E0FF0123FB73ED
:100410000E21D02000F092F80346FB73FB79002BED
:1004200004D0FB7B43F00103FB7303E0FB7B23F071
:100430000103FB73FB7B1A460E21D02000F02CF841
:1004400000BF1037BD4680BD80B584B000AF786076
:100450003960FF23FB730BE03968786801F0E1FF36
:100460000346002B01D000230EE0FB7B013BFB7316
:10047000FB7B002BF0D13B68DAB2054B1A700121EF
:10048000044801F057FF012318461037BD4680BDD0
:10049000660600200054004080B582B000AF0346DD
:1004A000FB710B46BB7113467B7101211F4801F0A4
:1004B00022FF1F491D48FFF7C7FF0346002B01D04D
:1004C00001232FE0FB7900221946184801F08CFF28
:1004D00018491648FFF7B8FF0346002B01D0012347
:1004E00020E0BB791946114801F062FF12490F481C
:1004F000FFF7AAFF0346002B01D0012312E07B790E
:1005000019460A4801F054FF0B490848FFF79CFFC1
:100510000346002B01D0012304E00121034801F030
:1005200009FF012318460837BD4680BD005400402E
:1005300001000300820007008400070080B584B03A
:1005400000AF03460A46FB711346BB7101212B48DD
:1005500001F0D1FE2A492948FFF776FF0346002B18
:1005600001D0012346E0FB7900221946234801F01F
:100570003BFF24492148FFF767FF0346002B01D0CA
:10058000012337E0BB7919461C4801F011FF1E49D1
:100590001A48FFF759FF0346002B01D0012329E039
:1005A0000121164801F0A7FE15491448FFF74CFF3A
:1005B0000346002B01D001231CE0FB7901221946E0
:1005C0000E4801F011FF11490C48FFF73DFF0346AB
:1005D000002B01D001230DE0084801F0F8FE03468E
:1005E000FB730021054801F0C4FE0121034801F01E
:1005F000A1FEFB7B18461037BD4680BD005400406D
:10060000010003008200070084000700400003008F
:1006100080B500AF102001F00DFC022001F0EEFBD0
:1006200000BF80BD80B485B000AF0E4BFB600E4BA9
:10063000BB600023FB800CE0FB681A68BB681A6093
:10064000FB680433FB60BB680433BB60FB88013389
:10065000FB80FB88002BEFD000BF1437BD4680BC69
:10066000704700BF00FC0008C805002080B584B0BA
:1006700000AF01F0F7FB114801F014FC104BFB60D8
:100680000E4BBB600023FB800FE0BA68FB681B6861
:100690001946104601F038FCFB680433FB60BB6868
:1006A0000433BB60FB880133FB80FB88002BECD05C
:1006B00001F0EAFB00BF1037BD4680BD00FC00081A
:1006C000C805002080B487B000AF78600B46FB708F
:1006D0000023FB750023FB730023BB7501237B758F
:1006E00026E07B7D7A6813441B78BB7500233B6151
:1006F00018E0FA7DBB7D5340FB73FB7B03F00103E5
:10070000FB73FB7D5B08FB75BB7D5B08BB75FB7BEF
:10071000002B04D0FB7D83F07303DB43FB753B6947
:1007200001333B613B69072BE3DD7B7D01337B7547
:100730007A7DFB789A42D4D3FB7D18461C37BD46A0
:1007400080BC704780B582B000AF01217348FFF7CD
:10075000B4FD0346002B00F0D9800121704800F061
:1007600098FB0346002B01D100F0ACFB6D4B1B78CE
:10077000062B02D16B4B00221A706A4B1B78012B9F
:1007800040F0C480684B5A78684B5A70664B5B786F
:10079000052B00F28D8001A252F823F0B507000866
:1007A000F5070008C5070008450800080508000807
:1007B0005D0800085E4B00221A705E4B4BF68032DB
:1007C0009A847AE00023FB7109E0FB799A1CFB799B
:1007D0005549895C584AD154FB790133FB71FB7947
:1007E000022BF2D9524B02221A70524B4CF2503269
:1007F0009A8462E04D4B504A0233118892781980F6
:100800009A705AE00023BB7109E0BB799A1CBB794E
:100810004549895C494AD154BB790133BB71BB79E5
:10082000022BF2D9404B5A79444BDA703E4B9A79FD
:10083000424B1A713E4B04221A703E4B4CF250321E
:100840009A843AE0394B3D4A0233116819601279B3
:100850001A713B4B1A78354B9A712EE0324B9B78CC
:10086000032B29D801A252F823F000BF7D0800080D
:10087000970800089F080008A7080008314B324A73
:100880001A602A4B314A0233106851681860596067
:1008900012891A810BE02B4B2D4A1A6007E0294B75
:1008A0002C4A1A6003E0274B2B4A1A6000BF03E072
:1008B0001E4BFF225A7000E000BF1C4B1A6800203C
:1008C00010465A68002111469B6800221A4600F023
:1008D00041FB03461A46214B1A70204B1B781946E0
:1008E0001248FFF7EFFE03461A46104B1A701B4BD7
:1008F0001B780A221A49184601F09AFF094B032275
:100900001A708021084801F0BBFD00BF0121034897
:10091000FFF7FCFC00BF0837BD4680BD0008004063
:10092000000C0140C4050020D805002074060020FA
:10093000CD050020000400405C060020D00500200A
:10094000C8050020840600206031000868060020E9
:100950006C3100087831000884310008CC05002093
:100960006006002090B583B000AF01216B48FFF70F
:10097000A4FC0346002B00F0C880694B1B78052BB4
:1009800000F2C38001A252F823F000BFA5090008BD
:10099000390A00080F0A0008C10A00086F0A000897
:1009A000B109000800F08EFA5D4B01221A70ACE02C
:1009B0005C4B1B6802331B78992B05D0594B1B6885
:1009C00002331B78792B08D1564B1B680921184636
:1009D00001F0B4F9534B544A1A6000237B6002E0E3
:1009E0007B6801337B607B68504A9342F8DD0921C4
:1009F0004D4801F0A3F901F0C9F9FFF7BBFC03462C
:100A00001A464B4B1A70464B01221A707DE00323A5
:100A1000FB700EE0FB78013BD9B2FB78C3F1030316
:100A2000444AD35C1A46D020FFF736FDFB78013BE1
:100A3000FB70FB78002BEDD10323BB7010E0BB787B
:100A4000013BDAB2BB78C3F103041146D020FFF7B3
:100A500075FD03461A46374B1A55BB78013BBB70F0
:100A6000BB78002BEBD12E4B03221A704DE0324B9A
:100A70001A79324B1A70FFF7F9FD2F4BDB78022BF6
:100A800005D02D4BDB781846FFF7B9FC18E02A4B50
:100A9000DB78022B14D103237B700EE07B780633C6
:100AA000D9B27B78C3F10303234AD35C1A46D02022
:100AB000FFF7F2FC7B78013B7B707B78002BEDD15C
:100AC00003233B7010E03B780633DAB23B78C3F186
:100AD00003041146D020FFF731FD03461A46164B9A
:100AE0001A553B78013B3B703B78002BEBD10E2134
:100AF000D020FFF723FD034603F00103DAB20E4BCB
:100B0000DA70074B05221A7000BF01210348FFF776
:100B1000FDFB00BF0C37BD4690BD00BF0004004088
:100B2000CD05002084060020603100089F8601006A
:100B3000680600205C060020D0050020C8050020C3
:100B400080B500AF154B1B68144A43F001031360D6
:100B5000124B5A681149124B13404B600F4B1B68E4
:100B60000E4A23F0847323F4803313600B4B1B680D
:100B70000A4A23F480231360084B5B68074A23F476
:100B8000FE035360054B4FF41F029A6000F00CF80F
:100B9000044B4FF000629A6000BF80BD001002401D
:100BA0000000FFF800ED00E080B500AF00F002F8B3
:100BB00000BF80BD80B483B000AF00237B60002302
:100BC0003B603A4B1B68394A43F480331360374B20
:100BD0001B6803F400333B607B6801337B603B6838
:100BE000002B03D17B68B3F5A06FF0D12F4B1B68AE
:100BF00003F40033002B02D001233B6001E000230B
:100C00003B603B68012B4BD1294B1B68284A43F0C2
:100C100010031360264B1B68254A23F0030313605F
:100C2000234B1B68224A43F0020313601F4B1F4AE9
:100C30005B6853601D4B1D4A5B6853601B4B5B68D0
:100C40001A4A43F480635360184B5B68174A23F4D5
:100C50007C135360154B5B68144A43F4E8135360EC
:100C6000124B1B68114A43F08073136000BF0F4B97
:100C70001B6803F00073002BF9D00C4B5B680B4A28
:100C800023F003035360094B5B68084A43F00203F7
:100C9000536000BF054B5B6803F00C03082BF9D1D0
:100CA00000BF0C37BD4680BC704700BF001002403B
:100CB0000020024080B582B000AF114B7B60114B29
:100CC0003B6007E07A68131D7B603B68191D396043
:100CD00012681A603B680C4A9342F3D30B480C49E4
:100CE0004FF000028842B8BF40F8042BFADBFFF750
:100CF00027FF00F087F900BF0837BD4680BD00BF61
:100D00007133000800000020C4050020C405002045
:100D10008C06002080B400AFFEE780B489B000AF3D
:100D2000786039600023FB6100233B610023BB61D5
:100D30000023FB6000237B610023BB603B68DB7802
:100D400003F00F03FB613B68DB7803F01003002B1B
:100D500005D03B689B781A46FB691343FB613B68EF
:100D60001B88DBB2002B44D07B681B687B610023AF
:100D7000BB6138E00122BB6902FA03F3FB603B6808
:100D80001B881A46FB6813403B613A69FB689A422C
:100D900026D1BB699B00FB600F22FB6802FA03F3BC
:100DA000BB60BB68DB437A6913407B61FA69FB680F
:100DB00002FA03F37A6913437B613B68DB78282BE3
:100DC00005D10122BB699A407B685A6108E03B6803
:100DD000DB78482B04D10122BB699A407B681A61F9
:100DE000BB690133BB61BB69072BC3D97B687A69D7
:100DF0001A603B681B88FF2B46D97B685B687B6168
:100E00000023BB613AE0BB690833012202FA03F315
:100E1000FB603B681B881A46FB6813403B613A69DC
:100E2000FB689A4227D1BB699B00FB600F22FB68DD
:100E300002FA03F3BB60BB68DB437A6913407B6152
:100E4000FA69FB6802FA03F37A6913437B613B6832
:100E5000DB78282B05D1BB69083301229A407B68D7
:100E60005A613B68DB78482B05D1BB690833012206
:100E70009A407B681A61BB690133BB61BB69072B70
:100E8000C1D97B687A695A6000BF2437BD4680BCEF
:100E9000704780B485B000AF78600B467B8000233C
:100EA000FB737B689A687B881340002B02D0012378
:100EB000FB7301E00023FB73FB7B18461437BD4630
:100EC00080BC704780B584B000AF0323FB7336E06D
:100ED0001E4BBB601923FB7127E0BB6803F00103C5
:100EE000002B0ED01A4B08221A6140F2D62000F0D7
:100EF0008BF9174B4FF400221A61F22000F084F9AD
:100F00000DE0134B08221A61F22000F07DF9104B1E
:100F10004FF400221A6140F2D62000F075F9BB6848
:100F20005B08BB60FB79013BFB71FB79002BD4D1E3
:100F300041F6782000F068F9FB7B013BFB73FB7BFB
:100F4000002BC5D100BF1037BD4680BDE0EC0300CB
:100F50000008014080B487B000AF3B1D83E8070064
:100F60000123FB75FB7D0133FB757B79052B24D8B1
:100F700001A252F823F000BF910F0008990F00085A
:100F8000950F0008A70F0008A30F0008B10F000875
:100F9000FB7D13E0FB7D11E0FB7D0333FB75FB7DE7
:100FA0000CE0FB7D0AE0FB7D0533FB75FB7D05E076
:100FB000FB7D0A33FB75FB7D00E0FB7D18461C378B
:100FC000BD4680BC704700BF80B500AF044B1B78A6
:100FD00003F00103002B01D0FFF774FF00BF80BDB9
:100FE000C805002080B500AF054B5B69044A43F09B
:100FF00002035361FFF7EAF9FFF7E6FF00BF80BD88
:101000000004014080B582B000AF474B00221A7047
:10101000464B05221A70464B01221A7000F02AF93D
:1010200000F0BEF800F062F900F0ECF900F04CFAC4
:1010300000F0A6FAFFF77AF94FF47A7000F0C6F8DC
:1010400000F018FA394B1B78052BFBD801A252F897
:1010500023F000BF79100008451000084510000873
:10106000D7100008011100086D10000801F07AFB8C
:101070002E4B00221A7055E02C4B06221A702D4977
:101080002D4801F077FD78607B68002B49D12B4912
:10109000294801F06FFD0346002B03D0224B0022AC
:1010A0001A703EE02649244801F064FD0346002BF7
:1010B00006D12449204801F05DFD0346002B30D0C5
:1010C00080211D4801F0DCF9174B00221A70174BE4
:1010D00005221A7025E01C4801F0E8F91B4B1B782B
:1010E000184601F02BFA2C2001F028FA184801F0DC
:1010F000DDF9184801F0DAF90C4B06221A7011E0FC
:10110000154B1B781946154801F0F0F980210A4863
:1011100001F0B6F9044B00221A70044B06221A7033
:1011200000E000BF8EE700BF58060020C405002085
:10113000CD0500209C310008D8050020A43100080E
:10114000AC310008B4310008BC310008D5050020DE
:1011500060060020C8310008CC050020740600207D
:1011600080B400AF094B1B68094AA2FB03239B090B
:10117000084A1360054B1B68074AA2FB03239B0C1C
:10118000064A136000BFBD4680BC704700000020C7
:10119000D34D62108006002083DE1B4388060020AA
:1011A00080B500AF074BDB68064A43F08073D3601D
:1011B000054B1B68044A43F001031360FFF7D0FF9F
:1011C00000BF80BDF0ED00E0001000E080B485B00D
:1011D00000AF78600A4B5B68FB600A4B1A687B685B
:1011E00002FB03F37B6000BF054B5A68FB68D31A10
:1011F0007A689A42F8D800BF1437BD4680BC704761
:10120000001000E08006002080B485B000AF786058
:101210000A4B5B68FB600A4B1A687B6802FB03F3AE
:101220007B6000BF054B5A68FB68D31A7A689A4204
:10123000F8D800BF1437BD4680BC7047001000E0EE
:101240008806002080B483B000AF0346FB71FB79B1
:1012500003F01F03012202FA03F1054A97F9073050
:101260005B0942F8231000BF0C37BD4680BC7047B5
:1012700000E100E080B582B000AF00F0ADF94FF4BE
:10128000803000F0D7F900F003FA0346FB71FB79D8
:10129000012B27D1FFF7BCF9FFF7C4F9002000F0BC
:1012A00077FA002000F0ACFA4FF4806000F08CFA7E
:1012B0004FF4E0114FF4803000F012FA012000F0FA
:1012C0002DFA00BF392000F0A3FB0346002BF9D014
:1012D000022000F033FA00BF00F04CFA0346082B5E
:1012E000FAD100E0FEE70837BD4680BD80B582B088
:1012F00000AF01211C2000F04FFB0323BB71102322
:10130000FB714FF40053BB803B1D19463848FFF773
:1013100004FD0223BB711023FB710F23BB803B1D17
:1013200019463448FFF7F9FC0323BB711823FB71FE
:101330004FF40073BB803B1D19462E48FFF7EDFCB0
:101340000323BB710423FB714FF48063BB803B1DFF
:1013500019462848FFF7E1FC0323BB711823FB71F2
:101360004FF48063BB803B1D19462348FFF7D5FC33
:101370000323BB710423FB714FF40063BB803B1D4F
:1013800019461D48FFF7C9FC0223BB711C23FB71E2
:10139000C023BB803B1D19461748FFF7BEFC022344
:1013A000BB714823FB710123BB803B1D19461248CA
:1013B000FFF7B3FC0121012000F0EEFA0F4B9B6810
:1013C0000E4A43F0100393600D4B1B680C4A43F028
:1013D000020313600A4BDB68094A43F00203D3603F
:1013E0000720FFF72FFF00BF0837BD4680BD00BFB5
:1013F0000010014000080140000C014000000140C5
:101400000004014080B586B000AF01214FF4804058
:1014100000F0C2FA25233B7500237B750023BB75C2
:101420000123FB7507F11403184600F003FE4FF487
:10143000E1337B6000233B8100237B810023BB8160
:1014400000233B820C23FB813B1D1946084800F01A
:1014500019FB012240F22551054800F0ECFB012167
:10146000034800F0C9FB00BF1837BD4680BD00BF70
:101470000038014080B584B000AF01214FF48020D6
:1014800000F0A8FA4FF416533B600023BB80002302
:10149000FB8000233B810023BB810C237B813B46E7
:1014A0001946084800F0EEFA0121064800F0A4FBB6
:1014B000012240F22551034800F0BDFB00BF103768
:1014C000BD4680BD0048004080B584B000AF01211A
:1014D000022000F07FFA3B1D1846FEF793FE4FF402
:1014E000E153BB804CF250333B813B1D19462248EF
:1014F000FEF70CFE012201211F48FEF7BBFE012171
:101500001D48FEF798FE1D233B7001237B700023CE
:10151000BB700123FB703B46184600F08BFD012198
:10152000042000F057FA3B1D1846FEF76BFE4FF4FF
:10153000E153BB804FF47A733B813B1D19460F4842
:10154000FEF7E4FD012201210C48FEF793FE012184
:101550000A48FEF770FE1E233B7001237B700123B7
:10156000BB700123FB703B46184600F063FD00BFD3
:101570001037BD4680BD00BF000400400008004099
:1015800080B584B000AF0121012000F005FA0121EF
:101590004FF4001000F01EFA3B46184600F06EFEB5
:1015A0000B4B3B6001233B814FF480637B813B46C7
:1015B0001946084800F0A0FD0121064800F07CFE15
:1015C0000121044800F0D5FE00BF1037BD4680BDA4
:1015D000A08601000054004080B400AF134B1B688C
:1015E000124A43F001031360104B5A680F49104B25
:1015F00013404B600D4B1B680C4A23F0847323F49B
:1016000080331360094B1B68084A23F4802313605E
:10161000064B5B68054A23F4FE035360034B4FF40B
:101620001F029A6000BFBD4680BC70470010024098
:101630000000FFF880B483B000AF7860134B1B68E4
:10164000124A23F480331360104B1B680F4A23F4B3
:10165000802313607B68B3F5803F03D0B3F5802F00
:1016600007D00DE0094B1B68084A43F48033136030
:1016700006E0064B1B68054A43F4A023136000BF35
:1016800000BF0C37BD4680BC704700BF0010024051
:1016900080B582B000AF00233B600023FB710023C4
:1016A000BB71312000F0B4F90346BB713B680133D4
:1016B0003B603B68B3F5A06F02D0BB79002BF0D044
:1016C000312000F0A5F90346002B02D00123FB7165
:1016D00001E00023FB71FB7918460837BD4680BD49
:1016E00080B485B000AF786039600023FB600A4B9E
:1016F0005B68FB60FB6823F47C13FB607A683B68E3
:101700001343FA681343FB60034AFB68536000BF4E
:101710001437BD4680BC70470010024080B483B0CF
:1017200000AF0346FB71044AFB79136000BF0C371E
:10173000BD4680BC704700BF6000424280B485B0A7
:1017400000AF78600023FB60094B5B68FB60FB68BF
:1017500023F00303FB60FA687B681343FB60044AD1
:10176000FB68536000BF1437BD4680BC704700BFA4
:101770000010024080B400AF044B5B68DBB203F0A2
:101780000C03DBB21846BD4680BC70470010024017
:1017900080B485B000AF78600023FB60094B5B68C4
:1017A000FB60FB6823F0F003FB60FA687B6813437F
:1017B000FB60044AFB68536000BF1437BD4680BC21
:1017C000704700BF0010024080B485B000AF786061
:1017D0000023FB60094B5B68FB60FB6823F4E0635C
:1017E000FB60FA687B681343FB60044AFB68536044
:1017F00000BF1437BD4680BC704700BF00100240D8
:1018000080B485B000AF78600023FB60094B5B6853
:10181000FB60FB6823F46053FB607B68DB00FA68C5
:101820001343FB60034AFB68536000BF1437BD4697
:1018300080BC70470010024080B487B000AF786071
:1018400000237B6100233B610023FB600023BB601E
:101850004C4B5B6803F00C037B617B69042B07D066
:10186000082B09D0002B33D17B68474A1A6033E03C
:101870007B68454A1A602FE0424B5B6803F47013A3
:101880003B61404B5B6803F48033FB603B699B0C1E
:1018900002333B61FB68002B06D13B693B4A02FBEC
:1018A00003F27B681A6017E0364B5B6803F4003381
:1018B000002B06D03B69354A02FB03F27B681A60B5
:1018C0000AE03B69304A02FB03F27B681A6003E0DE
:1018D0007B682D4A1A6000BF2A4B5B6803F0F00357
:1018E0007B617B691B097B61294A7B6913441B78F7
:1018F000DBB2BB607B681A68BB68DA407B685A6001
:10190000204B5B6803F4E0637B617B691B0A7B61AE
:101910001F4A7B6913441B78DBB2BB607B685A6843
:10192000BB68DA407B689A60164B5B6803F46053CF
:101930007B617B69DB0A7B61154A7B6913441B78F9
:10194000DBB2BB607B685A68BB68DA407B68DA60F0
:101950000C4B5B6803F440437B617B699B0B7B61B1
:101960000C4A7B6913441B78DBB2BB607B68DA6886
:10197000BB68B2FBF3F27B681A6100BF1C37BD463F
:1019800080BC70470010024000127A0000093D0040
:10199000140000202400002080B483B000AF7860E1
:1019A0000B46FB70FB78002B06D0094B9A6908495F
:1019B0007B6813438B6106E0054B9A697B68DB43C8
:1019C000034913408B6100BF0C37BD4680BC704794
:1019D0000010024080B483B000AF78600B46FB700B
:1019E000FB78002B06D0094BDA6908497B68134362
:1019F000CB6106E0054BDA697B68DB4303491340A2
:101A0000CB6100BF0C37BD4680BC70470010024060
:101A100080B487B000AF0346FB710023FB60002356
:101A20007B610023FB74FB795B09DBB2FB60FB6825
:101A3000012B03D1124B1B687B6109E0FB68022B71
:101A400003D10F4B1B6A7B6102E00D4B5B6A7B612C
:101A5000FB7903F01F03FB607A69FB6822FA03F34A
:101A600003F00103002B02D00123FB7401E00023EB
:101A7000FB74FB7C18461C37BD4680BC704700BF1A
:101A80000010024080B58CB000AF78603960002350
:101A9000FB620023BB6200237B6200233B620023C6
:101AA000FB617B68FB617B681B8A9BB2FB62FA6A05
:101AB0004CF6FF731340FB623B68DB881A46FB6AF7
:101AC0001343FB62FB6A9AB27B681A827B689B892C
:101AD0009BB2FB62FA6A4EF6F3131340FB623B685B
:101AE0009A883B681B8913439AB23B685B8913430E
:101AF0009BB21A46FB6A1343FB62FB6A9AB27B688D
:101B00009A817B689B8A9BB2FB62FA6A4FF6FF431D
:101B10001340FB623B689B891A46FB6A1343FB62D6
:101B2000FB6A9AB27B689A8207F108031846FFF7AE
:101B300083FEFB692E4A934202D17B69BB6201E0BE
:101B40003B69BB627B689B899BB21BB2002B0CDAA2
:101B5000BA6A13469B0013449A001A443B681B68F8
:101B60005B00B2FBF3F37B620BE0BA6A13469B00A7
:101B700013449A001A443B681B689B00B2FBF3F3C2
:101B80007B627B6A1B4AA2FB03235B091B01FB628E
:101B9000FB6A1B09642202FB03F37A6AD31A3B62D5
:101BA0007B689B899BB21BB2002B0CDA3B6ADB0083
:101BB0003233104AA2FB03235B0903F00703FA6ADE
:101BC0001343FB620BE03B6A1B013233094AA2FB61
:101BD00003235B0903F00F03FA6A1343FB62FB6AFA
:101BE0009AB27B681A8100BF3037BD4680BD00BF06
:101BF000003801401F85EB5180B483B000AF78609E
:101C00000B46FB70FB78002B08D07B689B899BB24E
:101C100043F400539AB27B689A8107E07B689B8902
:101C20009BB223F400539AB27B689A8100BF0C37B1
:101C3000BD4680BC704780B487B000AF78600B466B
:101C40007B8013467B7000233B610023FB600023F5
:101C5000BB6000237B617B687B617B88DBB25B09B7
:101C6000DBB23B617B8803F01F03FB600122FB6852
:101C700002FA03F3BB603B69012B03D17B690C3390
:101C80007B6109E03B69022B03D17B6910337B61E7
:101C900002E07B6914337B617B78002B06D07B6983
:101CA00019687B69BA680A431A6006E07B6919689B
:101CB000BB68DA437B690A401A6000BF1C37BD4627
:101CC00080BC704780B483B000AF78600B467B80E7
:101CD0007B88C3F308039AB27B689A8000BF0C37F5
:101CE000BD4680BC704780B483B000AF78607B682D
:101CF0009B889BB2C3F308039BB218460C37BD46C2
:101D000080BC704780B485B000AF78600B467B80A4
:101D10000023FB737B681B889AB27B8813409BB2BD
:101D2000002B02D00123FB7301E00023FB73FB7B3C
:101D300018461437BD4680BC7047000080B584B09B
:101D400000AF78600B46FB700023FB7313E0FB7B56
:101D50007A6813441B789BB219460B48FFF7B2FF11
:101D600000BF40210848FFF7CDFF0346002BF8D005
:101D7000FB7B0133FB73FA7BFB789A42E7D300BF0E
:101D80001037BD4680BD00BF0048004080B582B01E
:101D900000AF0023FB7126E042F21073BB801CE011
:101DA000144B1B889BB203F02003002B12D0114868
:101DB000FFF799FF0346FB70FB78FF2B04D1FB79FB
:101DC000012B01D80023FB71FB790B4A1344FA78ED
:101DD0005A7005E0BB88013BBB80BB88002BDFD17C
:101DE000FB790133FB71FB79082BD5D900BF08378C
:101DF000BD4680BD004800406806002080B485B024
:101E000000AF78600023FB60094B1B68FB60FB6838
:101E100003F03803FB60FA687B681343FB60044AF5
:101E2000FB68136000BF1437BD4680BC704700BF1D
:101E30000020024080B483B000AF7860084B1B687C
:101E4000074A23F010031360054B1A6804497B68A6
:101E500013430B6000BF0C37BD4680BC704700BF0A
:101E60000020024080B400AF044B054A5A60034B87
:101E7000044A5A6000BFBD4680BC70470020024043
:101E800023016745AB89EFCD80B400AF044B1B69DC
:101E9000034A43F08003136100BFBD4680BC704716
:101EA0000020024080B584B000AF78600423FB734B
:101EB0004FF4302000F09CF80346FB73FB7B042BAF
:101EC0001BD1104B1B690F4A43F0020313610D4AEB
:101ED0007B6853610B4B1B690A4A43F04003136153
:101EE0004FF4302000F084F80346FB73054B1A6969
:101EF000044941F6FD7313400B61FB7B1846103714
:101F0000BD4680BD0020024080B584B000AF78603F
:101F100039600423FB730023BB604FF4005000F0D2
:101F200067F80346FB73FB7B042B2FD11A4B1B690D
:101F3000194A43F0010313617B683A6892B21A8030
:101F40004FF4005000F054F80346FB73FB7B042B66
:101F500015D17B680233BB603B681A0CBB6892B238
:101F60001A804FF4005000F043F80346FB730A4B0D
:101F70001A69094941F6FE7313400B6106E0064BEE
:101F80001A69054941F6FE7313400B61FB7B184645
:101F90001037BD4680BD00BF0020024080B483B032
:101FA00000AF0423FB71114BDB6803F00103012B2D
:101FB00002D10123FB7113E00C4BDB6803F0040337
:101FC000002B02D00223FB710AE0084BDB6803F010
:101FD0001003002B02D00323FB7101E00423FB71EB
:101FE000FB7918460C37BD4680BC70470020024084
:101FF00080B584B000AF78600423FB73FFF7CEFF99
:102000000346FB7306E0FFF7C9FF0346FB737B68DB
:10201000013B7B60FB7B012B02D17B68002BF2D163
:102020007B68002B01D10523FB73FB7B184610371F
:10203000BD4680BD80B487B000AF786000237B616F
:1020400000233B610F23FB607B68DB78002B3AD0D9
:10205000274BDB68DB431B0A03F007037B617B69CB
:10206000C3F104033B61FA687B6922FA03F3FB6066
:102070007B685B781A463B6902FA03F37B617B68F5
:102080009B781A46FB6813407A6913437B617B692E
:102090001B017B61174A7B681B787969C9B21344BD
:1020A0000A4683F800237B681B7803F01F0311495D
:1020B0007A6812785209D2B21046012202FA03F36A
:1020C00041F820300FE07B681B7803F01F030949BB
:1020D0007A6812785209D2B2104601229A4000F171
:1020E000200341F8232000BF1C37BD4680BC704749
:1020F00000ED00E000E100E080B58AB000AF78605C
:1021000039600023FB8400237B840423BB84574B6A
:10211000FB617B689B88FB84FB8C23F03F03FB8483
:1021200007F108031846FFF787FB3B69FB61FB6972
:102130004F4AA2FB03239B0C7B84FA8C7B8C1343BA
:10214000FB847B68FA8C9A807B681B889BB223F0A7
:1021500001039AB27B681A800023FB843B681B68EA
:10216000444A934215D83B681B685B00FA69B2FB8E
:10217000F3F3BB84BB8C032B01D80423BB84FA8C00
:10218000BB8C1343FB847B8C01339AB27B681A842B
:1021900040E03B68DB884BF6FF72934209D13B6815
:1021A0001A6813465B001344FA69B2FBF3F3BB846D
:1021B0000EE03B681A6813469B0013449A001344D0
:1021C000FA69B2FBF3F3BB84BB8C43F48043BB845A
:1021D000BB8CC3F30B03002B03D1BB8C43F0010377
:1021E000BB84BA8CFB8C13439BB26FEA43436FEA08
:1021F0005343FB847B8C4FF4967202FB03F31E4A1D
:1022000082FB03129211DB17D31A9BB201339AB2ED
:102210007B681A847B68FA8C9A837B681B889BB2E4
:1022200043F001039AB27B681A807B681B88FB84A9
:10223000FB8C23F4816323F00203FB843B689A88C0
:102240003B685B8913439AB2FB8C1343FB847B6826
:10225000FA8C1A803B689A893B681B8913439AB2AF
:102260007B681A8100BF2837BD4680BD00127A0006
:1022700083DE1B43A0860100D34D621080B483B07F
:1022800000AF78607B6841F288321A607B68002278
:102290009A807B684BF6FF72DA807B6800221A8195
:1022A0007B6800225A817B684FF480429A8100BF8C
:1022B0000C37BD4680BC704780B483B000AF7860F7
:1022C0000B46FB70FB78002B08D07B681B889BB209
:1022D00043F001039AB27B681A8007E07B681B8891
:1022E0009BB223F001039AB27B681A8000BF0C37BF
:1022F000BD4680BC704780B483B000AF78600B46A9
:10230000FB70FB78002B08D07B681B889BB243F4E2
:1023100080739AB27B681A8007E07B681B889BB247
:1023200023F480739AB27B681A8000BF0C37BD46D5
:1023300080BC704780B483B000AF78600B46FB7000
:10234000FB78002B08D07B681B889BB243F400739A
:102350009AB27B681A8007E07B681B889BB223F4E3
:1023600000739AB27B681A8000BF0C37BD4680BCF0
:10237000704780B483B000AF78600B46FB70FB7889
:10238000002B08D07B681B889BB243F480639AB211
:102390007B681A8007E07B681B889BB223F480630C
:1023A0009AB27B681A8000BF0C37BD4680BC70476C
:1023B00080B483B000AF78600B46FB70FB789AB2B4
:1023C0007B681A8200BF0C37BD4680BC704780B462
:1023D00083B000AF78607B681B8A9BB2DBB2184683
:1023E0000C37BD4680BC704780B483B000AF7860C6
:1023F0000B46FB701346BB70BB78002B04D0FB78F8
:1024000043F00103FB7003E0FB7823F00103FB7052
:10241000FB789AB27B681A8200BF0C37BD4680BC3D
:10242000704780B487B000AF7860396000233B61AB
:102430000023FB600023BB600023FB757B689B8A45
:102440009BB2FB607B681B8B9BB2BB60BB681B04B1
:10245000BB60FA68BB68134323F07F433B613A6972
:102460003B6813403A689A4202D10123FB7501E0B0
:102470000023FB75FB7D18461C37BD4680BC7047AA
:1024800080B582B000AF78600B46FB70FB781A46CF
:10249000FF21786800F0CEF9034B00221A7000BFCC
:1024A0000837BD4680BD00BF6506002080B582B0FC
:1024B00000AF786010E07B685A1C7A601B789BB292
:1024C00019460948FFF7FEFB00BF40210648FFF709
:1024D00019FC0346002BF8D07B681B78002BEAD14F
:1024E00000BF0837BD4680BD0038014080B584B0CC
:1024F00000AF78600B46FB700023FB7313E0FB7B9F
:102500007A6813441B789BB219460B48FFF7DAFB35
:1025100000BF40210848FFF7F5FB0346002BF8D029
:10252000FB7B0133FB73FA7BFB789A42E7D300BF56
:102530001037BD4680BD00BF0038014080B582B075
:1025400000AF0346FB71FB799BB219460748FFF7C2
:10255000B9FB00BF40210548FFF7D4FB0346002B21
:10256000F8D000BF0837BD4680BD00BF003801402D
:1025700080B500AF3D4B1B889BB203F02003002BBE
:1025800071D03A48FFF7AFFB0346DAB2384B1A7006
:10259000384B1B78802B02D9364B00221A70354BF2
:1025A0001B781A46324B1978334B9954314B1B78B0
:1025B0000133DAB22F4B1A70304B1B78032B52D8F1
:1025C00001A252F823F000BFD9250008F925000820
:1025D0002726000849260008254B1B782B2B3BD1CA
:1025E000274B1B78052B37D0244B01221A708021F2
:1025F0002148FFF745FF2FE01D4B1B783A2B2DD1CB
:102600001D4B1A791F4B1A701F4800F0EFF8034654
:10261000DAB21E4B1A7080211748FFF731FF174BB3
:1026200002221A701AE0134B1A78184B1B789A4240
:1026300016D1134B01221A70104B03221A70144B3F
:102640004FF47A729A840BE0094B1B783E2B09D128
:102650000B4B04221A7005E000BF04E000BF02E04B
:1026600000BF00E000BF00BF80BD00BF00380140D8
:102670006306002065060020D805002058060020CB
:10268000C4050020D5050020DE05002064060020DA
:102690000008004090B587B000AF78603960002333
:1026A000FB754BE00023FB730023BB737868FFF7D7
:1026B000FDFE0023BB753BE000233B6102E03B696C
:1026C00001333B613B69234A9342F8DD3968224874
:1026D00000F050FA0346FB7320491F4800F04AFA05
:1026E0000346002B14BF01230023DCB21C491A4807
:1026F00000F040FA0346002B14BF01230023DBB295
:102700002343DBB2BB73FB7B002B05D08021124837
:10271000FFF7B6FE002319E0BB7B002B05D080211C
:102720000D48FFF7ADFE022310E0BB7D0133BB7502
:10273000BB7D1D2BC0D9FB7D0133FB75FB7D022BBF
:10274000B0D980210448FFF79BFE012318461C37AF
:10275000BD4690BD3F420F00D8050020CC31000897
:10276000D431000880B582B000AF80211948FFF74E
:1027700087FEFF20FFF7E2FE0023FB711649174892
:10278000FFF788FF03461A46FB791343FB71124992
:102790001348FFF77FFF03461A46FB791343FB718B
:1027A0000D491048FFF776FF03461A46FB7913439D
:1027B000FB7109490C48FFF76DFF03461A46FB7988
:1027C0001343FB71FB79002BD6D100BF0837BD4600
:1027D00080BD00BFD8050020DC310008E0310008D2
:1027E000E831000810320008203200080A220021D7
:1027F00000F04EBB931E222B16D80A2A10B506D025
:102800000B460C46194600F059FB204610BD002827
:10281000F6DA0B462D2403F8014B0C4640421946CC
:1028200000F04CFB204610BD00200870704700BF30
:10283000FFF7E0BFF0B4860743D0541E002A3ED015
:10284000CAB2034602E014F1FF3438D303F8012B77
:102850009D07F8D1032C2BD9CDB245EA05250F2CC5
:1028600045EA054516D9A4F110073F0903F12006F2
:1028700006EB071603F1100242E9045542E902553E
:102880001032B242F8D104F00F040137032C03EBED
:1028900007130DD91E462246043A032A46F8045B64
:1028A000FAD8221F22F003020432134404F0030476
:1028B0002CB1C9B21C4403F8011B9C42FBD1F0BCF3
:1028C000704714460346C5E74FF0010C2DE9F0416F
:1028D000644600264FF0FF3533198B4200EB0507A5
:1028E0000DD23F5D10F803E0BE452DD21E460124F7
:1028F000A3EB050C33198B4200EB0507F1D34FF026
:102900000108002644464FF0FF37C2F800C03319D3
:102910008B4200EB070C0ED21CF804C010F803E049
:10292000E64518D91E460124A3EB070833198B424C
:1029300000EB070CF0D30137681C874224BF3846F0
:10294000C2F80080BDE8F0810CD04FF0010C354694
:1029500064466644C0E70BD04FF001083746444652
:102960004644D4E7644512BF01341E460124B3E750
:10297000444512BF01341E460124C8E72DE9F04F3B
:10298000ADF2144D914605468B461046194603AAF2
:102990001C46FFF799FF804603AB0DF20C4243F84B
:1029A000044F9342FBD154B1631E09F1FF3204A8D6
:1029B00012F8011F40F8213013F1FF33F8D20399C8
:1029C00042464944484600F019FB00286FD108F1FF
:1029D000FF3301934B4482460093234607465446F7
:1029E00058469A4607EB0A06321A0021284400F09E
:1029F000BFFA002856D1002E54D0AB1913F8012C81
:102A000004AB53F822304BB124B1039A9A4201D956
:102A1000AAEB02031F4400243046E3E74445234663
:102A200038BF43460AF1FF3C634513D2FA1815F844
:102A300002E019F803002A44864509EB030106D099
:102A40002CE011F801EF12F8010F864526D1013371
:102A50006345F6D3019B4445194680F08780009A70
:102A6000FB1892F800C0E85CEA1884457ED1009813
:102A700004F1FF3B06E010F801ED12F801CDE64548
:102A800003D119464B1E9B45F5D101348C426FD8BA
:102A9000039C30462744AAEB0404A3E7C8F10102D3
:102AA0001744B7E700200DF2144DBDE8F08FA4EBFA
:102AB0000803434538BF434608F1FF37013303930A
:102AC00009EB070358464FF0000AC34698460AEB45
:102AD0000406321A0021284400F04AFA0028E1D105
:102AE000002EDFD0AB1913F8012C04AB53F82230C1
:102AF0009BBB601E834515D20AEB0B0215F802C082
:102B000019F80B302A449C4509EB0B015B4606D0B3
:102B100026E011F801EF12F801CFE64520D101338C
:102B20008342F6D37B1C11D00AEB0703E95C98F8CB
:102B30000000EA1888420FD1434605E013F8010D62
:102B400012F8011D884207D14B45F7D105EB0A0069
:102B50000DF2144DBDE8F08F039B9A443046B6E762
:102B6000CBF1010292449A443046B0E741468CE7EB
:102B7000E81998E72DE9F04F02780E4685B0054632
:102B800009788AB3A1B18446741C0846012701E084
:102B900068B11C462346904214BF002707F0010786
:102BA0001CF8012F13F8010B002AF1D1F0B91FB165
:102BB000284605B0BDE8F08F681C00F051FA0746C2
:102BC000A0B1A41B012C16D0254485422CBFA5EB37
:102BD00000094FF001091F2C0FD923463246494600
:102BE000FFF7CCFE0546E3E70029E1D000252846A3
:102BF00005B0BDE8F08F0546DAE703AA2146304666
:102C0000FFF762FE0399804602463144304600F0E9
:102C1000F5F900284FD182460546B346484608F1EB
:102C2000FF330193F31800936619321A00213844D8
:102C300000F09EF90028D9D1002ED7D0D0454346C8
:102C400038BF53469C4212D95A19B95C1BF803008D
:102C50003A4488420BEB030C06D073E01CF8010FDA
:102C600012F8011F88426DD101339C42F6D1019BBD
:102C7000D045194678D9009AEB1892F800C0F85C54
:102C8000FA18844570D100980AF1FF3906E010F86F
:102C900001ED12F801CDE64503D119464B1E4B4517
:102CA000F5D10AF1010A8A454AD8039B30461D44F2
:102CB000A4EB030AB8E7A4EB0803434538BF434637
:102CC00008F1FF3A0133039306EB0A034846002557
:102CD000B34699466619321A0021384400F048F983
:102CE000002883D1002E81D0444514D908EB050279
:102CF000B85C1BF808303A4498420BEB0801434695
:102D000006D027E011F801CF12F8010F844521D138
:102D100001339C42F6D1BAF1FF3F11D005EB0A0313
:102D2000F85C99F80010FA18884219D14B4605E072
:102D300013F8010D12F8011D884211D15B45F7D13E
:102D40003D4435E7C8F1010215441D444FF0000A27
:102D5000304669E7C8F1010215441D443046B9E721
:102D6000039B30461D44B5E741469AE72DE9F84FED
:102D70000E468046174699460D4600E025462C46ED
:102D80000A9814F801BB00F0D9F85844417811F0C2
:102D90000801F3D1BBF12D0F57D0BBF12B0F04BFAE
:102DA00095F801B0AC1CB9F1000F04D0B9F1100FC7
:102DB00050D0CC4605E0BBF1300F55D04FF00A099A
:102DC000CC4600290CBF6FF0004E4FF0004E00259E
:102DD000BEFBFCF328460CFB13EA05E029D00125D5
:102DE0000CFB002014F801BBABF13002092A05D915
:102DF000ABF14102192A0BD8ABF1370291450FDD37
:102E0000B5F1FF3FEED08342E8D24FF0FF35E9E75E
:102E1000ABF16102192A03D8ABF157029145EFDCFF
:102E20006B1C0BD001B140420FB14DBB3E60BDE801
:102E3000F88F9245D3DA4FF0FF35D3E72223C8F855
:102E40000030FFB17046661EF0E7AC1C95F801B08B
:102E50000121A8E7BBF1300FABD1237803F0DF03EA
:102E6000582B06D0CC46ACE7237803F0DF03582B71
:102E70000AD14FF0100C94F801B0E1460234A0E7FB
:102E80008646DFE77046D2E74FF00809CC4698E760
:102E9000084B70B51D68084E6C6B82B0002C08BFE3
:102EA0003446134600940A4601462846FFF75EFF63
:102EB00002B070BD2800002058040020F0B48AB091
:102EC0006E461746DFF870C004460D46BCE80F009A
:102ED0000FC6BCE80F000FC69CE80300BB1E46F8F7
:102EE000040B222B317023D8691E0846002200E013
:102EF0001A46B4FBF7F307FB13440AAE344414F844
:102F0000286C1C4600F8016F531C002CF0D1EC54C7
:102F100052B12B44013411F8016F13F8017D101BDD
:102F200084420F701E70F5DB28460AB0F0BC704773
:102F300000202870F9E700BF38320008D0F8EC0014
:102F4000704700BF82B049B15AB16BB113780B60C2
:102F50001278101C18BF012002B0704701A9002A86
:102F6000F3D1104602B070476FF00100F4E700BFE4
:102F7000830770B4CDB23DD0541E0AB30378AB4280
:102F80001FD0431C05E014F1FF3419D30278AA4284
:102F900017D013F0030F184603F10103F3D1032CEC
:102FA00011D84CB30378AB420BD00444431C02E06D
:102FB0000278AA4205D09C42184603F10103F7D1DA
:102FC000002070BC704706460A0292B22A4342EAC9
:102FD0000242336830465340A3F1013121EA030332
:102FE00013F0803F06F10406DCD1043C032C30468C
:102FF000EFD8D6E71446D2E72046E2E7032A70B4BA
:1030000014D940EA0105AD0704460B4622D11D68DC
:1030100026681946AE42204603F1040304F1040475
:1030200018D1043A032A20461946F0D8541E72B12A
:1030300002780B789A4208BF641806D00CE010F8AA
:10304000012F11F8013F9A4206D1A142F7D1002089
:1030500070BC7047541EEBE7D01A70BC704700BFBD
:10306000C9B200F00303002943D07BB10378002BE1
:1030700067D099423CD0431C05E013F8012B002A8D
:103080005DD08A4234D09A071846F6D170B40468ED
:1030900041EA012646EA064686EA0405A5F101331F
:1030A000A4F1013223EA050322EA0402134313F0D8
:1030B000803F0FD150F8044F84EA0605A5F1013294
:1030C000A4F1013322EA050223EA0403134313F0B7
:1030D000803FEFD0037843B1994202D106E08B42A2
:1030E00004D010F8013F002BF9D1184670BC70478E
:1030F00070475BB10378002BFAD0431C03E00278E1
:103100000133002AF4D099071846F8D10268A2F1D9
:10311000013323EA020313F0803F08D150F8042F53
:10312000A2F1013323EA020313F0803FF6D00378C3
:10313000002BDDD010F8013F002BFBD1704710466B
:1031400070471846704700BF19B1FF2A03D80A70AC
:103150000121084670478A234FF0FF310360F8E7EA
:10316000FF0186000000000079000000FF019900C7
:10317000000007D08F000000FF01990000001388B5
:10318000CB000000FF017900000000008600000075
:10319000FF018800000007D0A00000002B49504428
:1031A00000000000434C4F53454400004552524F2D
:1031B000520000004641494C0000000041542B439E
:1031C000495053454E443D000D0A00004552524FB0
:1031D000520000004641494C000000004F4B0000E7
:1031E00041540D0A0000000041542B43574A4150FE
:1031F0005F4355523D22496E7465726E6574222C90
:10320000223233313431383431220D0A00000000CB
:1032100041542B4349504D55583D310D0A00000093
:1032200041542B4349505345525645523D312C345D
:10323000383737380D0A00003031323334353637FD
:1032400038396162636465666768696A6B6C6D6E64
:103250006F707172737475767778797A00000000F8
:1032600043000000504F5349580000002E0000005A
:103270000020202020202020202028282828282046
:10328000202020202020202020202020202020203E
:1032900020881010101010101010101010101010A6
:1032A0001004040404040404040404101010101096
:1032B0001010414141414141010101010101010160
:1032C00001010101010101010101010110101010B2
:1032D0001010424242424242020202020202020232
:1032E0000202020202020202020202021010101086
:1032F00020000000000000000000000000000000AE
:1033000000000000000000000000000000000000BD
:1033100000000000000000000000000000000000AD
:10332000000000000000000000000000000000009D
:10333000000000000000000000000000000000008D
:10334000000000000000000000000000000000007D
:10335000000000000000000000000000000000006D
:10336000000000000000000000000000000000005D
:01337000005C
:1033710000A24A0400000000000000000102030452
:10338100060708090000000001020304010203040A
:1033910006070809020406083000002000000000AA
:1033A100000000001C03002084030020EC03002027
:1033B100000000000000000000000000000000000C
:1033C10000000000000000000000000000000000FC
:1033D10000000000000000000000000000000000EC
:1033E10000000000000000000000000000000000DC
:1033F10000000000000000000000000000000000CC
:1034010000000000000000000000000000000000BB
:1034110000000000000000000000000000000000AB
:10342100000000000000000000000000000000009B
:10343100000000000000000000000000000000008B
:10344100000000000000000001000000000000007A
:103451000E33CDAB34126DE6ECDE05000B0000003F
:10346100000000000000000000000000000000005B
:10347100000000000000000000000000000000004B
:10348100000000000000000000000000000000003B
:10349100000000000000000000000000000000002B
:1037C10000000000000000004300000000000000B5
:1037D10000000000000000000000000000000000E8
:1037E1000000000000000000430000000000000095
:1037F10000000000000000000000000000000000C8
:103801000000000000000000430000000000000074
:1038110000000000000000000000000000000000A7
:103821000000000000000000430000000000000054
:103831000000000000000000000000000000000087
:103841000000000000000000430000000000000034
:103851000000000000000000000000000000000067
:103861000000000000000000430000000000000014
:103871000000000000000000000000000000000047
:1038810000000000000000004300000000000000F4
:103891000000000000000000000000000000000027
:1038A100000000000000000049310008452F000819
:1038B10000000000703200086C3200085C32000821
:1038C1005C3200085C3200085C3200085C3200089F
:1038D1005C3200085C3200085C3200085C3200088F
:1038E100FFFFFFFFFFFFFFFFFFFFFFFFFFFF0000E5
:1038F100010041534349490000000000000000005D
:1039010000000000000000000000000000000000B6
:10391100000041534349490000000000000000003D
:103921000000000000000000000000000000000096
:043931000000000092
:0400000508000000EF
:00000001FF
